{
  "contractName": "WhiskeyTaste",
  "abi": [
    {
      "inputs": [
        {
          "name": "tasterID",
          "type": "address"
        },
        {
          "name": "supplierID",
          "type": "address"
        },
        {
          "name": "whiskeyid",
          "type": "string"
        },
        {
          "name": "priceValue",
          "type": "uint256"
        }
      ],
      "payable": false,
      "stateMutability": "nonpayable",
      "type": "constructor"
    },
    {
      "constant": false,
      "inputs": [
        {
          "name": "whiskeyId",
          "type": "string"
        },
        {
          "name": "whiskeySupplier",
          "type": "address"
        }
      ],
      "name": "addTaste",
      "outputs": [],
      "payable": false,
      "stateMutability": "nonpayable",
      "type": "function"
    },
    {
      "constant": false,
      "inputs": [
        {
          "name": "sender",
          "type": "address"
        }
      ],
      "name": "whiskeyTastePaid",
      "outputs": [],
      "payable": false,
      "stateMutability": "nonpayable",
      "type": "function"
    }
  ],
  "bytecode": "0x6080604052600060025534801561001557600080fd5b506040516104a13803806104a18339810180604052810190808051906020019092919080519060200190929190805182019291906020018051906020019092919050505082600160006101000a81548173ffffffffffffffffffffffffffffffffffffffff021916908373ffffffffffffffffffffffffffffffffffffffff16021790555081600390805190602001906100b0929190610101565b5080600481905550836000806101000a81548173ffffffffffffffffffffffffffffffffffffffff021916908373ffffffffffffffffffffffffffffffffffffffff160217905550505050506101a6565b828054600181600116156101000203166002900490600052602060002090601f016020900481019282601f1061014257805160ff1916838001178555610170565b82800160010185558215610170579182015b8281111561016f578251825591602001919060010190610154565b5b50905061017d9190610181565b5090565b6101a391905b8082111561019f576000816000905550600101610187565b5090565b90565b6102ec806101b56000396000f30060806040526004361061004c576000357c0100000000000000000000000000000000000000000000000000000000900463ffffffff16806368a1aeee14610051578063f6604992146100da575b600080fd5b34801561005d57600080fd5b506100d8600480360381019080803590602001908201803590602001908080601f0160208091040260200160405190810160405280939291908181526020018383808284378201915050505050509192919290803573ffffffffffffffffffffffffffffffffffffffff16906020019092919050505061011d565b005b3480156100e657600080fd5b5061011b600480360381019080803573ffffffffffffffffffffffffffffffffffffffff1690602001909291905050506101b9565b005b336000806101000a81548173ffffffffffffffffffffffffffffffffffffffff021916908373ffffffffffffffffffffffffffffffffffffffff16021790555080600160006101000a81548173ffffffffffffffffffffffffffffffffffffffff021916908373ffffffffffffffffffffffffffffffffffffffff16021790555081600390805190602001906101b492919061021b565b505050565b600160009054906101000a900473ffffffffffffffffffffffffffffffffffffffff1673ffffffffffffffffffffffffffffffffffffffff168173ffffffffffffffffffffffffffffffffffffffff1614156102185760016002819055505b50565b828054600181600116156101000203166002900490600052602060002090601f016020900481019282601f1061025c57805160ff191683800117855561028a565b8280016001018555821561028a579182015b8281111561028957825182559160200191906001019061026e565b5b509050610297919061029b565b5090565b6102bd91905b808211156102b95760008160009055506001016102a1565b5090565b905600a165627a7a723058202e3ca7752aeef26b4fd93e0a2469cf185e6297ac5ae9001840a55920ebec99ab0029",
  "source": "pragma solidity ^0.4.2;\n\ncontract WhiskeyTaste {\n    //Object to identify a Taste \n    address taster;\n    address supplier;\n    int paid = 0;\n    string whiskeyID;\n    uint price;\n\n\tconstructor (address tasterID, address supplierID, string whiskeyid, uint priceValue) public {\n        supplier = supplierID;\n        whiskeyID = whiskeyid;\n        price = priceValue;\n        taster = tasterID;\n    }\n\n    function addTaste(string whiskeyId, address whiskeySupplier) {\n        taster = msg.sender;\n        supplier = whiskeySupplier;\n        whiskeyID = whiskeyId;\n\t}\n\n    //Method to be called from supplier that whiskey has been paid and so contract is fullfilled\n    function whiskeyTastePaid(address sender) {\n        if (sender == supplier) {\n            paid = 1;\n        }\n\t}\n}\n",
  "sourcePath": "/Users/wrichtsfeld/Documents/Uni/Whiskey/contracts/WhiskeyTaste.sol",
  "compiler": {
    "name": "solc",
    "version": "0.4.23+commit.124ca40d.Emscripten.clang"
  },
  "schemaVersion": "2.0.0",
  "updatedAt": "2018-06-20T19:41:01.801Z"
}